{
  "contractName": "chainlist",
  "abi": [
    {
      "constant": true,
      "inputs": [
        {
          "name": "",
          "type": "uint256"
        }
      ],
      "name": "articles",
      "outputs": [
        {
          "name": "id",
          "type": "uint256"
        },
        {
          "name": "seller",
          "type": "address"
        },
        {
          "name": "buyer",
          "type": "address"
        },
        {
          "name": "name",
          "type": "string"
        },
        {
          "name": "description",
          "type": "string"
        },
        {
          "name": "price",
          "type": "uint256"
        }
      ],
      "payable": false,
      "stateMutability": "view",
      "type": "function"
    },
    {
      "anonymous": false,
      "inputs": [
        {
          "indexed": true,
          "name": "_id",
          "type": "uint256"
        },
        {
          "indexed": true,
          "name": "_seller",
          "type": "address"
        },
        {
          "indexed": false,
          "name": "_name",
          "type": "string"
        },
        {
          "indexed": false,
          "name": "_price",
          "type": "uint256"
        }
      ],
      "name": "logSellArticle",
      "type": "event"
    },
    {
      "anonymous": false,
      "inputs": [
        {
          "indexed": true,
          "name": "_id",
          "type": "uint256"
        },
        {
          "indexed": true,
          "name": "_seller",
          "type": "address"
        },
        {
          "indexed": true,
          "name": "_buyer",
          "type": "address"
        },
        {
          "indexed": false,
          "name": "_name",
          "type": "string"
        },
        {
          "indexed": false,
          "name": "_price",
          "type": "uint256"
        }
      ],
      "name": "logBuyArticle",
      "type": "event"
    },
    {
      "constant": false,
      "inputs": [
        {
          "name": "_name",
          "type": "string"
        },
        {
          "name": "_description",
          "type": "string"
        },
        {
          "name": "_price",
          "type": "uint256"
        }
      ],
      "name": "sellArticle",
      "outputs": [],
      "payable": false,
      "stateMutability": "nonpayable",
      "type": "function"
    },
    {
      "constant": true,
      "inputs": [],
      "name": "getNumberOfArticles",
      "outputs": [
        {
          "name": "",
          "type": "uint256"
        }
      ],
      "payable": false,
      "stateMutability": "view",
      "type": "function"
    },
    {
      "constant": true,
      "inputs": [],
      "name": "getArticlesForSale",
      "outputs": [
        {
          "name": "",
          "type": "uint256[]"
        }
      ],
      "payable": false,
      "stateMutability": "view",
      "type": "function"
    },
    {
      "constant": false,
      "inputs": [
        {
          "name": "_id",
          "type": "uint256"
        }
      ],
      "name": "buyArticle",
      "outputs": [],
      "payable": true,
      "stateMutability": "payable",
      "type": "function"
    },
    {
      "constant": false,
      "inputs": [],
      "name": "kill",
      "outputs": [],
      "payable": false,
      "stateMutability": "nonpayable",
      "type": "function"
    }
  ],
  "bytecode": "0x6080604052336000806101000a81548173ffffffffffffffffffffffffffffffffffffffff021916908373ffffffffffffffffffffffffffffffffffffffff160217905550610fe8806100536000396000f3fe6080604052600436106100555760003560e01c80631cc4baa81461005a57806341c0e1b5146100885780637f6be3da1461009f57806389da85d31461010b578063d260951514610136578063edcfafe61461029f575b600080fd5b6100866004803603602081101561007057600080fd5b8101908080359060200190929190505050610433565b005b34801561009457600080fd5b5061009d610902565b005b3480156100ab57600080fd5b506100b4610974565b6040518080602001828103825283818151815260200191508051906020019060200280838360005b838110156100f75780820151818401526020810190506100dc565b505050509050019250505060405180910390f35b34801561011757600080fd5b50610120610af6565b6040518082815260200191505060405180910390f35b34801561014257600080fd5b5061029d6004803603606081101561015957600080fd5b810190808035906020019064010000000081111561017657600080fd5b82018360208201111561018857600080fd5b803590602001918460018302840111640100000000831117156101aa57600080fd5b91908080601f016020809104026020016040519081016040528093929190818152602001838380828437600081840152601f19601f8201169050808301925050505050505091929192908035906020019064010000000081111561020d57600080fd5b82018360208201111561021f57600080fd5b8035906020019184600183028401116401000000008311171561024157600080fd5b91908080601f016020809104026020016040519081016040528093929190818152602001838380828437600081840152601f19601f82011690508083019250505050505050919291929080359060200190929190505050610b00565b005b3480156102ab57600080fd5b506102d8600480360360208110156102c257600080fd5b8101908080359060200190929190505050610d25565b604051808781526020018673ffffffffffffffffffffffffffffffffffffffff1673ffffffffffffffffffffffffffffffffffffffff1681526020018573ffffffffffffffffffffffffffffffffffffffff1673ffffffffffffffffffffffffffffffffffffffff1681526020018060200180602001848152602001838103835286818151815260200191508051906020019080838360005b8381101561038c578082015181840152602081019050610371565b50505050905090810190601f1680156103b95780820380516001836020036101000a031916815260200191505b50838103825285818151815260200191508051906020019080838360005b838110156103f25780820151818401526020810190506103d7565b50505050905090810190601f16801561041f5780820380516001836020036101000a031916815260200191505b509850505050505050505060405180910390f35b6000600254116104ab576040517f08c379a000000000000000000000000000000000000000000000000000000000815260040180806020018281038252601b8152602001807f5468657265206172652061727469636c657320666f722073616c65000000000081525060200191505060405180910390fd5b6000811180156104bd57506002548111155b61052f576040517f08c379a00000000000000000000000000000000000000000000000000000000081526004018080602001828103825260198152602001807f636865636b20746861742061727469636c65206578697374730000000000000081525060200191505060405180910390fd5b6000600160008381526020019081526020016000209050600073ffffffffffffffffffffffffffffffffffffffff168160020160009054906101000a900473ffffffffffffffffffffffffffffffffffffffff1673ffffffffffffffffffffffffffffffffffffffff16146105ef576040517f08c379a0000000000000000000000000000000000000000000000000000000008152600401808060200182810382526021815260200180610f776021913960400191505060405180910390fd5b8060010160009054906101000a900473ffffffffffffffffffffffffffffffffffffffff1673ffffffffffffffffffffffffffffffffffffffff163373ffffffffffffffffffffffffffffffffffffffff161415610698576040517f08c379a0000000000000000000000000000000000000000000000000000000008152600401808060200182810382526025815260200180610f986025913960400191505060405180910390fd5b80600501543414610711576040517f08c379a000000000000000000000000000000000000000000000000000000000815260040180806020018281038252601a8152602001807f5061796d656e7420646f65736e74206d6174636820707269636500000000000081525060200191505060405180910390fd5b338160020160006101000a81548173ffffffffffffffffffffffffffffffffffffffff021916908373ffffffffffffffffffffffffffffffffffffffff1602179055508060010160009054906101000a900473ffffffffffffffffffffffffffffffffffffffff1673ffffffffffffffffffffffffffffffffffffffff166108fc349081150290604051600060405180830381858888f193505050501580156107be573d6000803e3d6000fd5b508060020160009054906101000a900473ffffffffffffffffffffffffffffffffffffffff1673ffffffffffffffffffffffffffffffffffffffff168160010160009054906101000a900473ffffffffffffffffffffffffffffffffffffffff1673ffffffffffffffffffffffffffffffffffffffff16837faaaff894528d0318b75ceade5739516f2626f919665f1b9992a1f270752ebbac84600301856005015460405180806020018381526020018281038252848181546001816001161561010002031660029004815260200191508054600181600116156101000203166002900480156108ef5780601f106108c4576101008083540402835291602001916108ef565b820191906000526020600020905b8154815290600101906020018083116108d257829003601f168201915b5050935050505060405180910390a45050565b6000809054906101000a900473ffffffffffffffffffffffffffffffffffffffff1673ffffffffffffffffffffffffffffffffffffffff163373ffffffffffffffffffffffffffffffffffffffff161461095b57600080fd5b3373ffffffffffffffffffffffffffffffffffffffff16ff5b6060806002546040519080825280602002602001820160405280156109a85781602001602082028038833980820191505090505b50905060008090506000600190505b6002548111610a7057600073ffffffffffffffffffffffffffffffffffffffff166001600083815260200190815260200160002060020160009054906101000a900473ffffffffffffffffffffffffffffffffffffffff1673ffffffffffffffffffffffffffffffffffffffff161415610a63576001600082815260200190815260200160002060000154838381518110610a4e57fe5b60200260200101818152505081806001019250505b80806001019150506109b7565b50606081604051908082528060200260200182016040528015610aa25781602001602082028038833980820191505090505b50905060008090505b82811015610aec57838181518110610abf57fe5b6020026020010151828281518110610ad357fe5b6020026020010181815250508080600101915050610aab565b5080935050505090565b6000600254905090565b6002600081548092919060010191905055506040518060c0016040528060025481526020013373ffffffffffffffffffffffffffffffffffffffff168152602001600073ffffffffffffffffffffffffffffffffffffffff168152602001848152602001838152602001828152506001600060025481526020019081526020016000206000820151816000015560208201518160010160006101000a81548173ffffffffffffffffffffffffffffffffffffffff021916908373ffffffffffffffffffffffffffffffffffffffff16021790555060408201518160020160006101000a81548173ffffffffffffffffffffffffffffffffffffffff021916908373ffffffffffffffffffffffffffffffffffffffff1602179055506060820151816003019080519060200190610c37929190610ed1565b506080820151816004019080519060200190610c54929190610ed1565b5060a082015181600501559050503373ffffffffffffffffffffffffffffffffffffffff166002547f1db507fecb614cc7bddda11a27fa22436aa459b22575765df77db7221ce9409085846040518080602001838152602001828103825284818151815260200191508051906020019080838360005b83811015610ce5578082015181840152602081019050610cca565b50505050905090810190601f168015610d125780820380516001836020036101000a031916815260200191505b50935050505060405180910390a3505050565b60016020528060005260406000206000915090508060000154908060010160009054906101000a900473ffffffffffffffffffffffffffffffffffffffff16908060020160009054906101000a900473ffffffffffffffffffffffffffffffffffffffff1690806003018054600181600116156101000203166002900480601f016020809104026020016040519081016040528092919081815260200182805460018160011615610100020316600290048015610e235780601f10610df857610100808354040283529160200191610e23565b820191906000526020600020905b815481529060010190602001808311610e0657829003601f168201915b505050505090806004018054600181600116156101000203166002900480601f016020809104026020016040519081016040528092919081815260200182805460018160011615610100020316600290048015610ec15780601f10610e9657610100808354040283529160200191610ec1565b820191906000526020600020905b815481529060010190602001808311610ea457829003601f168201915b5050505050908060050154905086565b828054600181600116156101000203166002900490600052602060002090601f016020900481019282601f10610f1257805160ff1916838001178555610f40565b82800160010185558215610f40579182015b82811115610f3f578251825591602001919060010190610f24565b5b509050610f4d9190610f51565b5090565b610f7391905b80821115610f6f576000816000905550600101610f57565b5090565b9056fe5468652061727469636c652068617320616c7265616479206265656e20736f6c645468652073656c6c65722063616e6e6f742062757920686973206f776e2061727469636c65a165627a7a72305820c29d3164d842a4d81ed6cc59c4bdda2ea051775db4b6418903187dd0002316c20029",
  "source": "pragma solidity >0.5.0;\r\n\r\nimport \"./ownable.sol\";\r\n\r\ncontract chainlist is ownable {\r\n\r\n  // custom typeString\r\n  struct Article{\r\n    uint id;\r\n    address payable seller;\r\n    address buyer;\r\n    string name;\r\n    string description;\r\n    uint256 price;\r\n  }\r\n\r\n  mapping (uint => Article) public articles;\r\n  uint articleCounter;\r\n\r\n\r\n// store variables\\\r\n//address owner;\r\n\r\n//constructor() public {\r\n//  owner = msg.sender;\r\n//}\r\n\r\n\r\n\r\n\r\n//events\r\nevent logSellArticle(uint indexed _id, address indexed _seller,\r\n  string _name,\r\n  uint256 _price\r\n  );\r\n\r\n  event logBuyArticle(uint indexed _id, address indexed _seller,address indexed _buyer,\r\n    string _name,\r\n    uint256 _price\r\n    );\r\n\r\n    //modifier onlyOwner(){\r\n    //  require(msg.sender == owner);\r\n    //  _;\r\n\r\n    //}\r\n\r\n//constructor() public {\r\n//function chainlist() public {\r\n//  sellArticle('Defaulat Article', 'This is an article by dedault', 1000000000000000000);\r\n//}\r\n\r\n\r\n//sell an\r\nfunction sellArticle(string memory _name, string memory _description, uint256 _price) public {\r\n\r\n  articleCounter++;\r\n  articles[articleCounter] = Article(\r\n    articleCounter,\r\n    msg.sender,\r\n    address(0x0),\r\n    _name,\r\n    _description,\r\n    _price\r\n    );\r\n\r\n\r\n\r\n\r\n  emit logSellArticle(articleCounter, msg.sender, _name, _price);\r\n\r\n\r\n}\r\n\r\n//fethch number of articles in contracts\r\nfunction getNumberOfArticles() public view returns (uint) {\r\n  return articleCounter;\r\n}\r\n\r\nfunction getArticlesForSale() public view returns (uint[] memory) {\r\n  uint[] memory articleIds = new uint[](articleCounter);\r\n\r\n  uint numberOfArticlesForSale = 0;\r\n\r\n  for(uint i = 1; i <= articleCounter; i++){\r\n    if(articles[i].buyer == address(0x0)) {\r\n      articleIds[numberOfArticlesForSale] = articles[i].id;\r\n      numberOfArticlesForSale++;\r\n    }\r\n  }\r\n\r\n  // copy articles id array to a smaller isInlineArray\r\n  uint[] memory forSale = new uint[](numberOfArticlesForSale);\r\n  for(uint j=0; j <numberOfArticlesForSale; j++) {\r\n    forSale[j] = articleIds[j];\r\n  }\r\n  return forSale;\r\n}\r\n\r\n\r\n\r\n\r\n\r\nfunction buyArticle(uint _id) payable public {\r\n  // is there an article for salee\r\n\r\n  require(articleCounter > 0, \"There are articles for sale\");\r\n  require(_id > 0 && _id <= articleCounter, \"check that article exists\");\r\n\r\n  Article storage article = articles[_id];\r\n  require(article.buyer == address(0x0), \"The article has already been sold\");\r\n  require(msg.sender != article.seller, \"The seller cannot buy his own article\");\r\n  require(msg.value == article.price, \"Payment doesnt match price\");\r\n  article.buyer = msg.sender;\r\n  article.seller.transfer(msg.value);\r\n\r\n  //triger events\r\n  emit logBuyArticle(_id, article.seller, article.buyer, article.name, article.price);\r\n\r\n  }\r\n\r\n  function kill() public onlyOwner {\r\n    //require(msg.sender == owner, \"only allowed to contracts owner\");\r\n    selfdestruct(msg.sender);\r\n  }\r\n\r\n\r\n\r\n\r\n\r\n}\r\n",
  "sourcePath": "C:/users/Murali Reddy/chainskills/training/chainlist/contracts/chainlist.sol",
  "compiler": {
    "name": "solc",
    "version": "0.5.8+commit.23d335f2.Emscripten.clang"
  },
  "schemaVersion": "3.0.13",
  "updatedAt": "2021-12-06T05:05:09.179Z",
  "devdoc": {
    "methods": {}
  },
  "userdoc": {
    "methods": {}
  }
}